:100000000C942A000C943F000C943F000C943F0089
:100010000C943F000C943F000C943F000C943F0064
:100020000C943F000C943F000C943F000C943F0054
:100030000C943F000C943F000C943F000C943F0044
:100040000C943F000C943F000C943F000C943F0034
:100050000C943F0011241FBECFE5D8E0DEBFCDBF1A
:1000600010E0A0E6B0E0E2EFF1E002C005900D92F2
:10007000A637B107D9F70E9472000C94F7000C94D0
:100080000000DA9A8FE99FE00197F1F700C00000C5
:10009000DA988FE99FE00197F1F700C0000008951A
:1000A000CF93C82F8BB387788BBB8BB32C2F229524
:1000B0002F7098E0299F90011124822B8BBB0E9406
:1000C00041008BB387788BBB2BB3CF7038E0C39FD5
:1000D000C0011124822B8BBBCF910C944100D99885
:1000E0000C945000CF93DF93CDB7DEB72B970FB6AC
:1000F000F894DEBF0FBECDBF2FEF80E792E0215016
:1001000080409040E1F700C0000081E090E061E0B5
:1001100070E02AB3AB01082E01C0440F0A94EAF73D
:10012000242B2ABB01968730910599F7DA9882E053
:100130000E946F0088E20E946F008CE00E946F00B6
:1001400081E00E946F0086E00E946F0000E610E0F0
:10015000F80181918F01811134C081E00E946F000C
:100160008BE0EBE6F0E0DE01119601900D928A95AE
:10017000E1F7EE24E394F12C11E081E00E946F009E
:10018000173061F1113019F4EE24E394F12C8FE76C
:10019000810F0E946F00CE0101966C01F6018191E2
:1001A0006F0181111EC0E114F104F9F01F5FFFEF30
:1001B00029E688E1F15020408040E1F700C00000CE
:1001C000DCCFD99A0E945000EFEFF1EE24E0E1502D
:1001D000F0402040E1F700C00000BACFF12CE12C44
:1001E000D6CFD99A0E945000D9CF1150E0CFF894C1
:0201F000FFCF3F
:1001F20048454C4C4F2041565221005445414D2018
:06020200474142414C009F
:00000001FF
