:100000000C942A000C947F000C943F000C943F0049
:100010000C943F000C943F000C943F000C943F0064
:100020000C943F000C943F000C943F000C943F0054
:100030000C943F000C943F000C943F000C943F0044
:100040000C943F000C943F000C943F000C943F0034
:100050000C943F0011241FBECFE5D8E0DEBFCDBF1A
:1000600010E0A0E6B0E0E4E7F8E002C005900D92F1
:10007000A437B107D9F70E94DF000C9438040C9420
:100080000000DA9A8FE99FE00197F1F700C00000C5
:10009000DA988FE99FE00197F1F700C0000008951A
:1000A000CF93C82F8BB387788BBB8BB32C2F229524
:1000B0002F7098E0299F90011124822B8BBB0E9406
:1000C00041008BB387788BBB2BB3CF7038E0C39FD5
:1000D000C0011124822B8BBBCF910C944100CF9394
:1000E000DF93EC018991811103C0DF91CF910895D5
:1000F000D99A0E945000F6CFD9980C9450001F92C4
:100100000F920FB60F9211240F931F932F933F93CB
:100110004F935F936F937F938F939F93AF93BF930F
:10012000EF93FF93CF93DF93CDB7DEB76497DEBF36
:10013000CDBF87B1807F87B987B187B9369A3699A5
:10014000FECF15B181E00E947C001F921F9380E6D4
:1001500090E09F938F938E010F5F1F4F1F930F931C
:100160000E946B01C8010E946F002FEF87EA91E6A1
:10017000215080409040E1F700C000000F900F90A8
:100180000F900F900F900F9064960FB6F894DEBF0B
:100190000FBECDBFDF91CF91FF91EF91BF91AF9196
:1001A0009F918F917F916F915F914F913F912F918F
:1001B0001F910F910F900FBE0F901F90189587B150
:1001C0008F7387B93E9A86B1887F86B986B187607A
:1001D00086B93D9A379A8FB780688FBF85B78E7F73
:1001E00085BF85B7826085BF8BB780648BBF2FEFDB
:1001F00080E792E0215080409040E1F700C000008D
:1002000081E090E061E070E02AB3AB01082E01C00C
:10021000440F0A94EAF7242B2ABB019687309105F4
:1002200099F7DA9882E00E947C0088E20E947C00C4
:100230008CE00E947C0081E00E947C0086E00E94AD
:100240007C0083E690E00E946F002FEF8BE594E442
:10025000215080409040E1F700C0000081E00E9402
:100260007C006FE070E08EE690E00E946001D1E1DA
:10027000D81B01E010E0C1E081E00E947C00DC17A7
:10028000D1F0C13011F401E010E08FE78C0F0E9433
:100290007C008EE690E00E946F000115110571F060
:1002A000CF5F2FEF85EA9EE0215080409040E1F73C
:1002B00000C00000E1CF10E000E0E7CFC150F1CF77
:1002C000FC016150704001900110D8F78095909525
:1002D0008E0F9F1F0895AEE0B0E0E1E7F1E00C94CF
:1002E0000F040D891E8986E08C831A8309838FEFA2
:1002F0009FE79E838D83AE01475E5F4F6F89788D48
:10030000CE0101960E948E012F813885020F131FA6
:10031000F80110822E96E4E00C942B04ABE0B0E0E0
:10032000E4E9F1E00C9401047C013B018A01FC0149
:1003300017821682838181FFC8C1CE0101965C01BC
:10034000F7019381F30193FD859193FF81913F0123
:10035000882309F453C1853239F493FD859193FFC5
:1003600081913F01853229F4B70190E00E94730327
:10037000E7CF912C212C312CFFE1F31538F08B3293
:1003800011F190F4803209F1833229F137FC3CC03D
:1003900020ED280F2A3050F536FE20C08AE0989EC6
:1003A000200D1124922E06C08D3291F0803371F70A
:1003B000689430F8F30193FD859193FF81913F019B
:1003C0008111DACF21C0689431F8689432F8F2CF05
:1003D000689433F8EFCF689434F8ECCFEAE02E9EBF
:1003E000200D1124222E689435F8E4CF8E3229F4A2
:1003F00036FC04C1689436F8DDCF8C3619F4689465
:1004000037F8D8CF8836B1F2982F9F7D9554933026
:10041000E0F08336A1F18337C1F1833509F063C081
:100420002801F2E04F0E511CF801C080D180692DE7
:1004300070E036FC02C06FEF7FEFC6010E946803D8
:100440004C01689437F882010AC00C5F1F4FFFE32C
:10045000F98388248394912C6501E89437F833FE5E
:100460002DC0522C8114910471F5552009F468CFE8
:10047000B70180E290E00E9473035A94F6CFF8012E
:10048000808189830E5F1F4FE4CF2801F2E04F0E79
:10049000511CF801C080D180692D70E036FC02C08B
:1004A0006FEF7FEFC6010E9460014C018201D5CF42
:1004B000B70180E290E00E9473032A942814190483
:1004C00009F0B0F7CECFF60137FC859137FE819168
:1004D0006F01B70190E00E94730351105A94F1E04C
:1004E0008F1A9108BFCF843619F0893609F077C08A
:1004F000F80137FE6BC060817181828193810C5F4E
:100500001F4FF32DFF763F2E97FF09C090958095E2
:10051000709561957F4F8F4F9F4F689437F82AE011
:1005200030E0A5010E94A303C82ECA188C2C432CCE
:1005300036FE0CC0E89440F8C91440F434FE05C0FF
:1005400032FC03C0F32DFE7E4F2E892C44FE95C055
:10055000FE01EC0DF11D8081803309F087C0242D50
:10056000297E422E842D8870582E43FC95C040FE73
:100570008FC09C2C821418F42C0C922C981844FEDA
:1005800091C0B70180E390E00E94730342FE09C06E
:1005900088E790E041FE02C088E590E0B7010E9444
:1005A0007303C91408F48AC0CA94D12C9FEFC91AE6
:1005B000D90ACA0CDB1CF60182916F01B70190E0E9
:1005C0000E947303AC14BD04B1F74FCF60817181F9
:1005D000072E000C880B990B0E5F1F4F92CFD32C68
:1005E000E894D4F82AE030E0853739F1232D297FCB
:1005F000D22E8F3601F148F48835A9F0F7018681B3
:1006000097812B96E2E10C941D04803749F08837DE
:10061000A9F7D4FE02C06894D2F820E130E00DC002
:100620006894D4F8F6CF34FE03C0822F8660D82EAB
:1006300020E132E002C028E030E0F801D7FE0FC030
:1006400060817181828193810C5F1F4FA5010E949F
:10065000A303C82ECA183D2CE89437F867CF6081F1
:10066000718190E080E00E5F1F4FF0CF42FC02C02E
:10067000839478CF8394839475CF842D867809F4FE
:1006800071CFF6CFB70180E290E00E9473038394AC
:100690008214C0F3512C73CF522C5818821408F4D2
:1006A0006ECFF8CF842D867809F47BCF8BE241FEA4
:1006B00080E247FC8DE2B70190E071CFB70180E3A3
:1006C00090E00E9473039A946CCF8FEF9FEF99CFC5
:1006D000FC010590615070400110D8F7809590950D
:1006E0008E0F9F1F08950F931F93CF93DF93182FA3
:1006F000092FEB018B8181FD09C01FEF0FEF812FC7
:10070000902FDF91CF911F910F91089582FF14C018
:100710002E813F818C819D81281739073CF4E88127
:10072000F981CF0101969983888310838E819F81FF
:1007300001969F838E83E3CFE885F985812F099504
:10074000892BA1F3DACFFA01AA27283051F1203101
:1007500081F1E8946F936E7F6E5F7F4F8F4F9F4F55
:10076000AF4FB1E03ED0B4E03CD0670F781F891F97
:100770009A1FA11D680F791F8A1F911DA11D6A0F65
:10078000711D811D911DA11D20D009F468943F9118
:100790002AE0269F11243019305D3193DEF6CF0117
:1007A0000895462F4770405D4193B3E00FD0C9F7DD
:1007B000F6CF462F4F70405D4A3318F0495D31FD4A
:1007C0004052419302D0A9F7EACFB4E0A69597959D
:1007D000879577956795BA95C9F700976105710573
:1007E00008959B01AC010A2E0694579547953795BD
:1007F0002795BA95C9F7620F731F841F951FA01D17
:1008000008952F923F924F925F926F927F928F92B4
:100810009F92AF92BF92CF92DF92EF92FF920F938F
:100820001F93CF93DF93CDB7DEB7CA1BDB0B0FB699
:10083000F894DEBF0FBECDBF09942A883988488856
:100840005F846E847D848C849B84AA84B984C884EC
:10085000DF80EE80FD800C811B81AA81B981CE0FE3
:10086000D11D0FB6F894DEBF0FBECDBFED010895C8
:04087000F894FFCF2A
:1008740025640048454C4C4F2041565221004845C0
:040884004C4C4F0089
:00000001FF
