:100000000C942A000C94BD1A0C943F000C943F00F1
:100010000C943F000C943F000C943F000C943F0064
:100020000C943F000C943F000C943F000C943F0054
:100030000C943F000C943F000C943F000C943F0044
:100040000C943F000C943F000C943F000C943F0034
:100050000C943F0011241FBECFE5D8E0DEBFCDBF1A
:1000600011E0A0E6B0E0EEEDF7E302C005900D92DE
:10007000AA36B107D9F70E94861A0C94ED1B0C948E
:100080000000EF92FF920F931F937B018C0120E001
:1000900030E040E05FE40E94ED0388238CF0C8016B
:1000A000B70120E030E040E05FE40E94B9010E9427
:1000B000AB049B01AC01205030404040504806C08A
:1000C000C801B7010E94AB049B01AC01B901CA0190
:1000D0001F910F91FF90EF900895A0E0B0E0E3E74B
:1000E000F0E00C94711BDC012B01FA019C91923021
:1000F00008F439C1EB018881823008F433C19430AF
:1001000069F4843009F02FC111969C91119789816F
:10011000981709F428C1A0E6B0E025C1843009F49D
:1001200021C18230A9F4923009F01DC19A01AD01BC
:1001300088E0EA010990AE01E90109929E0181502F
:10014000C1F7E201898111969C918923818308C1BD
:10015000923009F407C112962D903C901397EB0151
:100160008A819B811496AD90BD90CD90DC901797BD
:10017000EC80FD800E811F819101281B390BB90194
:1001800037FF04C066277727621B730B6032710547
:100190000CF061C0121613066CF537014801062EEB
:1001A00004C096948794779467940A94D2F721E0D8
:1001B00030E040E050E004C0220F331F441F551FC1
:1001C0006A95D2F721503040404050402E213F21C7
:1001D00040235123211531054105510521F021E02E
:1001E00030E040E050E079018A01E628F72808294C
:1001F00019293CC0232BD1F1260E371E35014601AB
:10020000062E04C096948794779467940A94D2F744
:1002100021E030E040E050E004C0220F331F441FD3
:10022000551F6A95D2F721503040404050402A2156
:100230003B214C215D21211531054105510521F05E
:1002400021E030E040E050E059016A01A628B728DB
:10025000C828D9280BC0821593052CF01C01AA24AC
:10026000BB24650103C0EE24FF24870111969C91F5
:10027000D20111968C91981709F445C0992339F051
:10028000A80197012A193B094C095D0906C0A6017E
:1002900095012E193F09400B510B57FD08C01182E3
:1002A0003382228224833583468357831DC081E0B5
:1002B00081833382228288279927DC01821B930B5A
:1002C000A40BB50B84839583A683B7830DC0220F3F
:1002D000331F441F551F24833583468357838281F0
:1002E000938101979383828324813581468157814D
:1002F000DA01C9010197A109B1098F5F9F4FAF4F83
:10030000BF4328F30BC0918333822282EA0CFB1C8B
:100310000C1D1D1DE482F5820683178383E0808314
:10032000248135814681578157FF1AC0C901AA2708
:1003300097FDA095BA2F81709070A070B0705695FF
:10034000479537952795822B932BA42BB52B848328
:100350009583A683B7838281938101969383828359
:10036000DF0101C0D201CD01CDB7DEB7E2E10C94CF
:100370008D1BA0E2B0E0EFEBF1E00C947D1B6983F4
:100380007A838B839C832D833E834F835887E9E058
:10039000EE2EF12CEC0EFD1ECE010196B7010E944F
:1003A00023068E010F5E1F4FCE010596B8010E94F5
:1003B00023068A8991E089278A8BC701B801AE019B
:1003C000475E5F4F0E946D000E944E05A096E6E0DA
:1003D0000C94991BA0E2B0E0E0EFF1E00C947D1BDF
:1003E00069837A838B839C832D833E834F835887D5
:1003F000F9E0EF2EF12CEC0EFD1ECE010196B701B7
:100400000E9423068E010F5E1F4FCE010596B80194
:100410000E942306C701B801AE01475E5F4F0E94EC
:100420006D000E944E05A096E6E00C94991BA0E298
:10043000B0E0EDE1F2E00C94711B69837A838B8369
:100440009C832D833E834F835887CE010196BE0146
:10045000675F7F4F0E942306CE010596BE016F5E47
:100460007F4F0E9423069985923088F089898230D7
:10047000C8F0943019F4823051F404C0843029F467
:10048000923081F480E690E0C6C0923049F420E0DA
:100490009A858A89981321E02A87CE010996BBC0E4
:1004A000823049F420E09A858A89981321E02A8BCA
:1004B000CE014196B0C02D843E844F8458886D880B
:1004C0007E888F88988CEE24FF248701AA24BB2481
:1004D000650140E050E060E070E0E0E0F0E0C10184
:1004E00081709070892BE9F0E60CF71C081D191D2E
:1004F0009A01AB012A0D3B1D4C1D5D1D80E090E073
:10050000A0E0B0E0E614F7040805190520F481E046
:1005100090E0A0E0B0E0BA01A901480F591F6A1F9E
:100520007B1FAA0CBB1CCC1CDD1C97FE08C081E005
:1005300090E0A0E0B0E0A82AB92ACA2ADB2A3196C6
:10054000E032F10549F0660C771C881C991C569422
:10055000479437942794C3CFFA85EA892B893C893D
:100560008B859C85280F391F2E5F3F4F17C0CA010E
:1005700081709070892B61F016950795F794E79438
:1005800080E090E0A0E0B0E8E82AF92A0A2B1B2BD3
:1005900076956795579547952F5F3F4F77FDE7CF46
:1005A0000CC0440F551F661F771F17FD4160EE0CEE
:1005B000FF1C001F111F21503040403090E05907B0
:1005C00090E0690790E4790760F32B8F3C8FDB01A3
:1005D000CA018F779070A070B07080349105A1052A
:1005E000B10561F447FD0AC0E114F10401051105EC
:1005F00029F0405C5F4F6F4F7F4F40781A8EFE1797
:1006000011F081E08A8F4D8F5E8F6F8F78A383E02A
:10061000898FCE0149960E944E05A096E2E10C9486
:100620008D1BA8E1B0E0E7E1F3E00C94791B69834E
:100630007A838B839C832D833E834F835887B9E0D5
:10064000EB2EF12CEC0EFD1ECE010196B7010E949F
:1006500023068E010F5E1F4FCE010596B8010E9442
:1006600023062985223008F47EC03989323010F4FF
:10067000B8017CC08A859A8989278A87243011F03D
:10068000223031F4231709F06EC060E670E06EC0CE
:10069000343039F41D861E861F86188A1C861B86F8
:1006A00004C0323021F484E08987B7015FC02B8514
:1006B0003C858B899C89281B390B3C872B87ED84D3
:1006C000FE840F851889AD88BE88CF88D88CEA143F
:1006D000FB040C051D0540F4EE0CFF1C001F111F50
:1006E000215030403C872B8720E030E040E050E054
:1006F00080E090E0A0E0B0E460E070E0EA14FB0489
:100700000C051D0540F0282B392B4A2B5B2BEA18D2
:10071000FB080C091D09B695A79597958795EE0CD2
:10072000FF1C001F111F6F5F7F4F6F31710531F785
:10073000DA01C9018F779070A070B0708034910594
:10074000A105B10561F427FD0AC0E114F10401051A
:10075000110529F0205C3F4F4F4F5F4F20782D87C8
:100760003E874F87588BBE01675F7F4FCB010E944A
:100770004E056896EAE00C94951BA8E1B0E0E3EC26
:10078000F3E00C947D1B69837A838B839C832D8398
:100790003E834F83588789E0E82EF12CEC0EFD1E36
:1007A000CE010196B7010E9423068E010F5E1F4FF6
:1007B000CE010596B8010E9423068985823040F05B
:1007C0008989823028F0C701B8010E949B0601C0C8
:1007D0008FEF6896E6E00C94991BA8E1B0E0E3EF98
:1007E000F3E00C947D1B69837A838B839C832D8338
:1007F0003E834F83588789E0E82EF12CEC0EFD1ED6
:10080000CE010196B7010E9423068E010F5E1F4F95
:10081000CE010596B8010E9423068985823040F0FA
:100820008989823028F0C701B8010E949B0601C067
:100830008FEF6896E6E00C94991BA8E1B0E0E3E244
:10084000F4E00C947D1B69837A838B839C832D83D6
:100850003E834F83588789E0E82EF12CEC0EFD1E75
:10086000CE010196B7010E9423068E010F5E1F4F35
:10087000CE010596B8010E9423068985823040F09A
:100880008989823028F0C701B8010E949B0601C007
:1008900081E06896E6E00C94991BA8E0B0E0E3E5FF
:1008A000F4E00C947A1B9B01AC0183E08983DA01AC
:1008B000C9018827B7FD83959927AA27BB27B82E9A
:1008C000211531054105510519F482E089833AC0AB
:1008D0008823A9F0203080E0380780E0480780E8CE
:1008E000580729F460E070E080E09FEC30C0EE240F
:1008F000FF248701E21AF30A040B150B02C07901E9
:100900008A018EE1C82ED12CDC82CB82ED82FE8260
:100910000F831887C801B7010E94FF0401971816BA
:10092000190684F4082E04C0EE0CFF1C001F111FD2
:100930000A94D2F7ED82FE820F831887C81AD90A6B
:10094000DC82CB82BA82CE0101960E944E052896A7
:10095000E9E00C94961BACE0B0E0E1EBF4E00C9421
:10096000811B69837A838B839C83CE010196BE01B0
:100970006B5F7F4F0E9423068D81823061F1823050
:1009800050F1843021F48E81882351F12EC02F81C3
:10099000388537FD20C06E812F3131051CF066236C
:1009A000F9F023C08EE190E0821B930B29853A85F4
:1009B0004B855C8504C056954795379527958A9554
:1009C000D2F76623B1F050954095309521953F4F71
:1009D0004F4F5F4F0EC020E030E040E050E009C0D4
:1009E0002FEF3FEF4FEF5FE704C020E030E040E043
:1009F00050E8B901CA012C96E2E00C949D1BEF92DD
:100A0000FF920F931F937B018C0180E0E81680E03A
:100A1000F80681E0080780E0180788F48FEFE816F1
:100A2000F1040105110531F028F088E090E0A0E024
:100A3000B0E017C080E090E0A0E0B0E012C080E03D
:100A4000E81680E0F80680E0080781E0180728F043
:100A500088E190E0A0E0B0E004C080E190E0A0E098
:100A6000B0E020E230E040E050E0281B390B4A0BB8
:100A70005B0B04C016950795F794E7948A95D2F717
:100A8000F701E859FF4F8081281B310941095109BD
:100A9000C9011F910F91FF90EF900895DF92EF929F
:100AA000FF920F931F93FC01E480F580068117816C
:100AB000D1808081823048F480E090E0A0E1B0E015
:100AC000E82AF92A0A2B1B2BA5C0843009F49FC001
:100AD000823021F4EE24FF24870105C0E114F104E3
:100AE0000105110519F4E0E0F0E096C06281738120
:100AF0009FEF623879070CF05BC022E83FEF261BBE
:100B0000370B2A3131052CF020E030E040E050E096
:100B10002AC0B801A701022E04C0769567955795A3
:100B200047950A94D2F781E090E0A0E0B0E004C0DD
:100B3000880F991FAA1FBB1F2A95D2F70197A109F9
:100B4000B1098E219F21A023B1230097A105B105F2
:100B500021F081E090E0A0E0B0E09A01AB01282B09
:100B6000392B4A2B5B2BDA01C9018F779070A0706B
:100B7000B07080349105A105B10539F427FF09C093
:100B8000205C3F4F4F4F5F4F04C0215C3F4F4F4FA2
:100B90005F4FE0E0F0E02030A0E03A07A0E04A0735
:100BA000A0E45A0710F0E1E0F0E079018A0127C0E3
:100BB0006038710564F5FB01E158FF4FD801C701AA
:100BC0008F779070A070B07080349105A105B10549
:100BD00039F4E7FE0DC080E490E0A0E0B0E004C08E
:100BE0008FE390E0A0E0B0E0E80EF91E0A1F1B1FA3
:100BF00017FF05C016950795F794E794319687E09F
:100C000016950795F794E7948A95D1F705C0EE24D9
:100C1000FF248701EFEFF0E06E2F67956627679559
:100C2000902F9F77D794DD24D7948E2F8695492FC8
:100C3000462B582F5D29B701CA011F910F91FF90D4
:100C4000EF90DF900895FC01DB014081518122810A
:100C5000622F6F7770E0221F2227221F9381892F36
:100C6000880F822B282F30E0991F9927991F119602
:100C70009C93119721153105A9F541155105610581
:100C8000710511F482E037C082E89FEF13969C93C0
:100C90008E9312979A01AB0167E0220F331F441F16
:100CA000551F6A95D1F783E08C930DC0220F331F37
:100CB000441F551F12968D919C911397019713967F
:100CC0009C938E931297203080E0380780E048078D
:100CD00080E4580758F314962D933D934D935C93FD
:100CE000179708952F3F310579F441155105610596
:100CF000710519F484E08C93089564FF03C081E0CA
:100D00008C9312C01C9210C02F57304013963C9306
:100D10002E93129783E08C9387E0440F551F661F34
:100D2000771F8A95D1F7706414964D935D936D93F8
:100D30007C93179708951F93DC01FB019C919230DF
:100D400008F447C08081823008F443C0943051F4E5
:100D500011961C91843099F58181682F70E0611B98
:100D600071093FC0843021F0923031F48230B9F102
:100D70008181882389F12DC011961C9111978230B1
:100D8000F1F081811817D9F412962D913C911397A7
:100D9000828193818217930794F028173907BCF05A
:100DA00014968D919D910D90BC91A02D248135813B
:100DB00046815781281739074A075B0718F4112322
:100DC00041F00AC082179307A407B50740F4112326
:100DD00019F061E070E005C06FEF7FEF02C060E0E6
:100DE00070E0CB011F910895DF93CF93CDB7DEB7AD
:100DF00027970FB6F894DEBF0FBECDBF89836A83F5
:100E00004B838B81882309F074C08981282F30E0BF
:100E10003F832E838E819F818130910559F12E81F0
:100E20003F81223031052CF48E819F81009769F03B
:100E3000D2C02E813F812230310589F18E819F8180
:100E40008330910509F440C0C6C0AAE3B0E0EAE3EC
:100E5000F0E08081482F8A81282F30E081E090E007
:100E6000022E02C0880F991F0A94E2F7809584230E
:100E70008C93B1C0A7E3B0E0E7E3F0E08081482FB6
:100E80008A81282F30E081E090E0022E02C0880F96
:100E9000991F0A94E2F7809584238C939CC0A4E365
:100EA000B0E0E4E3F0E08081482F8A81282F30E031
:100EB00081E090E0022E02C0880F991F0A94E2F7A9
:100EC000809584238C9387C0A1E3B0E0E1E3F0E058
:100ED0008081482F8A81282F30E081E090E0022E27
:100EE00002C0880F991F0A94E2F7809584238C939F
:100EF00072C08B81813009F06EC08981282F30E06B
:100F00003D832C838C819D818130910549F12C8119
:100F10003D81223031052CF48C819D81009761F058
:100F20005AC02C813D812230310571F18C819D8127
:100F300083309105E9F14FC0AAE3B0E0EAE3F0E0C5
:100F40008081482F8A81282F30E081E090E0022EB6
:100F500002C0880F991F0A94E2F7842B8C933BC040
:100F6000A7E3B0E0E7E3F0E08081482F8A81282FF3
:100F700030E081E090E0022E02C0880F991F0A94B1
:100F8000E2F7842B8C9327C0A4E3B0E0E4E3F0E025
:100F90008081482F8A81282F30E081E090E0022E66
:100FA00002C0880F991F0A94E2F7842B8C9313C018
:100FB000A1E3B0E0E1E3F0E08081482F8A81282FAF
:100FC00030E081E090E0022E02C0880F991F0A9461
:100FD000E2F7842B8C9327960FB6F894DEBF0FBEF2
:100FE000CDBFCF91DF910895DF93CF93CDB7DEB71B
:100FF00027970FB6F894DEBF0FBECDBF89836A83F3
:101000004B838B81882309F074C08981282F30E0BD
:101010003F832E838E819F818130910559F12E81EE
:101020003F81223031052CF48E819F81009769F039
:10103000D2C02E813F812230310589F18E819F817E
:101040008330910509F440C0C6C0ABE3B0E0EBE3E8
:10105000F0E08081482F8A81282F30E081E090E005
:10106000022E02C0880F991F0A94E2F7809584230C
:101070008C93B1C0A8E3B0E0E8E3F0E08081482FB2
:101080008A81282F30E081E090E0022E02C0880F94
:10109000991F0A94E2F7809584238C939CC0A5E362
:1010A000B0E0E5E3F0E08081482F8A81282F30E02E
:1010B00081E090E0022E02C0880F991F0A94E2F7A7
:1010C000809584238C9387C0A2E3B0E0E2E3F0E054
:1010D0008081482F8A81282F30E081E090E0022E25
:1010E00002C0880F991F0A94E2F7809584238C939D
:1010F00072C08B81813009F06EC08981282F30E069
:101100003D832C838C819D818130910549F12C8117
:101110003D81223031052CF48C819D81009761F056
:101120005AC02C813D812230310571F18C819D8125
:1011300083309105E9F14FC0ABE3B0E0EBE3F0E0C1
:101140008081482F8A81282F30E081E090E0022EB4
:1011500002C0880F991F0A94E2F7842B8C933BC03E
:10116000A8E3B0E0E8E3F0E08081482F8A81282FEF
:1011700030E081E090E0022E02C0880F991F0A94AF
:10118000E2F7842B8C9327C0A5E3B0E0E5E3F0E021
:101190008081482F8A81282F30E081E090E0022E64
:1011A00002C0880F991F0A94E2F7842B8C9313C016
:1011B000A2E3B0E0E2E3F0E08081482F8A81282FAB
:1011C00030E081E090E0022E02C0880F991F0A945F
:1011D000E2F7842B8C9327960FB6F894DEBF0FBEF0
:1011E000CDBFCF91DF910895DF93CF9300D000D092
:1011F00000D0CDB7DEB789836A835C834B83898156
:10120000282F30E03E832D834D815E814130510592
:1012100059F18D819E818230910534F42D813E817A
:101220002115310569F05BC04D815E814230510569
:1012300079F18D819E818330910509F43DC04FC0C5
:10124000E9E3F0E08081282F30E08A81882F90E068
:10125000A90102C0559547958A95E2F7CA018170A8
:10126000EB81FC8180833BC0E6E3F0E08081282FA6
:1012700030E08A81882F90E0A90102C055954795FA
:101280008A95E2F7CA018170EB81FC81808327C0D7
:10129000E3E3F0E08081282F30E08A81882F90E01E
:1012A000A90102C0559547958A95E2F7CA01817058
:1012B000EB81FC81808313C0E0E3F0E08081282F84
:1012C00030E08A81882F90E0A90102C055954795AA
:1012D0008A95E2F7CA018170EB81FC8180832696B2
:1012E0000FB6F894DEBF0FBECDBFCF91DF9108954A
:1012F000DF93CF9300D000D0CDB7DEB789836A8368
:101300008981282F30E03C832B838B819C81813025
:101310009105D1F02B813C81223031052CF48B8159
:101320009C81009761F01EC02B813C8122303105E9
:1013300081F08B819C818330910581F013C0EAE3B9
:10134000F0E08A8180830EC0E7E3F0E08A81808349
:1013500009C0E4E3F0E08A81808304C0E1E3F0E0C7
:101360008A8180830F900F900F900F90CF91DF9123
:101370000895DF93CF9300D000D0CDB7DEB7898337
:101380006A838981282F30E03C832B838B819C8169
:1013900081309105D1F02B813C81223031052CF434
:1013A0008B819C81009761F01EC02B813C81223093
:1013B000310581F08B819C818330910581F013C0D0
:1013C000EBE3F0E08A8180830EC0E8E3F0E08A81FD
:1013D000808309C0E5E3F0E08A81808304C0E2E312
:1013E000F0E08A8180830F900F900F900F90CF9143
:1013F000DF910895DF93CF9300D000D00F92CDB747
:10140000DEB789837B836A838981282F30E03D831F
:101410002C838C819D8181309105E1F02C813D816F
:10142000223031052CF48C819D81009761F026C01B
:101430002C813D8122303105A1F08C819D8183304A
:101440009105B1F01BC0E9E3F0E08081EA81FB8106
:10145000808314C0E6E3F0E08081EA81FB81808331
:101460000DC0E3E3F0E08081EA81FB81808306C068
:10147000E0E3F0E08081EA81FB8180830F900F90B0
:101480000F900F900F90CF91DF910895DF93CF933E
:1014900000D000D0CDB7DEB789836A838981282F39
:1014A00030E03C832B838B819C818130910549F115
:1014B0002B813C81223031052CF48B819C8100975B
:1014C00061F05AC02B813C812230310571F18B8152
:1014D0009C8183309105E9F14FC0ABE3B0E0EBE3D1
:1014E000F0E08081482F8A81282F30E081E090E071
:1014F000022E02C0880F991F0A94E2F784278C936A
:101500003BC0A8E3B0E0E8E3F0E08081482F8A81A7
:10151000282F30E081E090E0022E02C0880F991F52
:101520000A94E2F784278C9327C0A5E3B0E0E5E3B3
:10153000F0E08081482F8A81282F30E081E090E020
:10154000022E02C0880F991F0A94E2F784278C9319
:1015500013C0A2E3B0E0E2E3F0E08081482F8A818B
:10156000282F30E081E090E0022E02C0880F991F02
:101570000A94E2F784278C930F900F900F900F90AE
:10158000CF91DF910895DF93CF93CDB7DEB76C97FE
:101590000FB6F894DEBF0FBECDBF80E061E041E042
:1015A0000E94F40680E062E041E00E94F40680E0E0
:1015B00090E0A0EAB1E4898F9A8FAB8FBC8F698DE0
:1015C0007A8D8B8D9C8D20E030E04AE755E40E94B7
:1015D0001702DC01CB018D8B9E8BAF8BB88F6D8991
:1015E0007E898F89988D20E030E040E85FE30E949B
:1015F0001D0488232CF481E090E09C8B8B8B3FC0F2
:101600006D897E898F89988D20E03FEF4FE757E401
:101610000E94BD0318164CF5698D7A8D8B8D9C8DBB
:1016200020E030E040E251E40E941702DC01CB01EF
:10163000BC01CD010E944100DC01CB019C8B8B8B56
:101640000FC080E991E09A8B898B89899A890197EB
:10165000F1F79A8B898B8B899C8901979C8B8B8B5B
:101660008B899C89009769F714C06D897E898F8961
:10167000988D0E944100DC01CB019C8B8B8B8B8968
:101680009C89988B8F878F8598890197F1F7988B24
:101690008F8780E063E041E00E94F40680E064E030
:1016A00041E00E94F40680E065E041E00E94F4061B
:1016B00080E066E041E00E94F40680E090E0A0EA6D
:1016C000B1E48B879C87AD87BE876B857C858D85D4
:1016D0009E8520E030E04AE755E40E941702DC01D5
:1016E000CB018F839887A987BA876F817885898591
:1016F0009A8520E030E040E85FE30E941D048823E3
:101700002CF481E090E09E838D833FC06F817885CB
:1017100089859A8520E03FEF4FE757E40E94BD039B
:1017200018164CF56B857C858D859E8520E030E014
:1017300040E251E40E941702DC01CB01BC01CD0163
:101740000E944100DC01CB019E838D830FC080E9A4
:1017500091E09C838B838B819C810197F1F79C8323
:101760008B838D819E8101979E838D838D819E8148
:10177000009769F714C06F81788589859A850E94E2
:101780004100DC01CB019E838D838D819E819A83F4
:10179000898389819A810197F1F79A83898383E309
:1017A0000E94E70B82E30E94E70B88E20E94E70BAE
:1017B0008CE00E94E70B81E00E94E70B6C960FB66D
:1017C000F894DEBF0FBECDBFCF91DF9108950F9388
:1017D0001F93DF93CF93CDB7DEB7C559D0400FB677
:1017E000F894DEBF0FBECDBFFE01EB56FF4F8083E6
:1017F00080E061E040E00E94F407FE01EF56FF4FF9
:1018000080E090E0A0E8BFE380839183A283B3836C
:101810008E0103571F4FFE01EF56FF4F608171810C
:10182000828193812BEA3AEA4AEA50E40E94170245
:10183000DC01CB01F80180839183A283B383FE0195
:10184000E357FF4F608171818281938120E030E016
:1018500040E85FE30E941D04882334F4FE01E4574E
:10186000FF4F81E08083E0C0FE01E357FF4F6081BE
:1018700071818281938120E030E04FE753E40E9440
:10188000BD0318160CF0C0C0FE01EF56FF4F60817B
:1018900071818281938120E030E04AE754E40E9424
:1018A0001103DC01CB01FE01E857FF4F80839183D8
:1018B000A283B3838E010C571F4FFE01E857FF4FE1
:1018C000608171818281938120E030E04AE755E4B4
:1018D0000E941702DC01CB01F80180839183A2836F
:1018E000B383FE01EC57FF4F608171818281938148
:1018F00020E030E040E85FE30E941D04882344F4C8
:10190000FE01EE57FF4F81E090E09183808364C039
:10191000FE01EC57FF4F608171818281938120E04D
:101920003FEF4FE757E40E94BD0318160CF043C089
:10193000FE01E857FF4F608171818281938120E031
:1019400030E040E251E40E941702DC01CB018E013D
:101950000E571F4FBC01CD010E944100DC01CB019D
:10196000F801918380831FC0FE01E058FF4F80E99A
:1019700091E091838083FE01E058FF4F8081918147
:101980000197F1F7FE01E058FF4F91838083DE015C
:10199000AE57BF4FFE01EE57FF4F808191810197F7
:1019A00011969C938E93FE01EE57FF4F808191819B
:1019B0000097D1F64BC08E010E571F4FFE01EC571A
:1019C000FF4F60817181828193810E944100DC011F
:1019D000CB01F80191838083DE01A258BF4FFE0145
:1019E000EE57FF4F8081918111969C938E93FE015B
:1019F000E258FF4F808191810197F1F7FE01E25893
:101A0000FF4F9183808322C08E0104571F4FFE0138
:101A1000E357FF4F60817181828193810E94410071
:101A2000DC01CB01F8018083DE01A358BF4FFE012A
:101A3000E457FF4F80818C93FE01E358FF4F808174
:101A40008A95F1F7FE01E358FF4F808380E062E062
:101A500041E00E94F407FE01E758FF4F80E090E06C
:101A6000A0E8BFE380839183A283B3838E010B58E8
:101A70001F4FFE01E758FF4F608171818281938182
:101A80002BEA3AEA4AEA50E40E941702DC01CB0151
:101A9000F80180839183A283B383FE01EB58FF4F4B
:101AA000608171818281938120E030E040E85FE3D2
:101AB0000E941D04882334F4FE01EC58FF4F81E09E
:101AC0008083E0C0FE01EB58FF4F6081718182810D
:101AD000938120E030E04FE753E40E94BD031816E5
:101AE0000CF0C0C0FE01E758FF4F60817181828118
:101AF000938120E030E04AE754E40E941103DC01C6
:101B0000CB01FE01E059FF4F80839183A283B38311
:101B10008E0104591F4FFE01E059FF4F6081718112
:101B20008281938120E030E04AE755E40E94170269
:101B3000DC01CB01F80180839183A283B383FE0192
:101B4000E459FF4F608171818281938120E030E010
:101B500040E85FE30E941D04882344F4FE01E65937
:101B6000FF4F81E090E09183808364C0FE01E459DF
:101B7000FF4F608171818281938120E03FEF4FE7C9
:101B800057E40E94BD0318160CF043C0FE01E05953
:101B9000FF4F608171818281938120E030E040E2DB
:101BA00051E40E941702DC01CB018E0106591F4F40
:101BB000BC01CD010E944100DC01CB01F801918301
:101BC00080831FC0FE01E859FF4F80E991E09183B7
:101BD0008083FE01E859FF4F808191810197F1F7E1
:101BE000FE01E859FF4F91838083DE01A659BF4F64
:101BF000FE01E659FF4F80819181019711969C93D8
:101C00008E93FE01E659FF4F808191810097D1F6B6
:101C10004BC08E0106591F4FFE01E459FF4F6081F2
:101C20007181828193810E944100DC01CB01F80126
:101C300091838083DE01AA59BF4FFE01E659FF4F11
:101C40008081918111969C938E93FE01EA59FF4FFA
:101C5000808191810197F1F7FE01EA59FF4F91834D
:101C6000808322C08E010C581F4FFE01EB58FF4F9E
:101C700060817181828193810E944100DC01CB01EE
:101C8000F8018083DE01AB59BF4FFE01EC58FF4FD6
:101C900080818C93FE01EB59FF4F80818A95F1F78B
:101CA000FE01EB59FF4F8083FE01EB56FF4F808111
:101CB00082958F70982F917080E063E0492F0E9489
:101CC000F407FE01EB56FF4F808182958695877061
:101CD000982F917080E064E0492F0E94F407FE0184
:101CE000EB56FF4F80818295869586958370982F5D
:101CF000917080E065E0492F0E94F407FE01EB56E9
:101D0000FF4F8081982F991F9927991F80E066E0E7
:101D1000492F0E94F407FE01EF59FF4F80E090E049
:101D2000A0E8BFE380839183A283B3838E01035A2B
:101D30001F4FFE01EF59FF4F6081718182819381B6
:101D400020E030E04AE755E40E941702DC01CB01B5
:101D5000F80180839183A283B383FE01E35AFF4F8E
:101D6000608171818281938120E030E040E85FE30F
:101D70000E941D04882344F4FE01E55AFF4F81E0D0
:101D800090E09183808364C0FE01E35AFF4F60813D
:101D900071818281938120E03FEF4FE757E40E94F9
:101DA000BD0318160CF043C0FE01EF59FF4F6081D0
:101DB00071818281938120E030E040E251E40E9411
:101DC0001702DC01CB018E01055A1F4FBC01CD016A
:101DD0000E944100DC01CB01F801918380831FC088
:101DE000FE01E75AFF4F80E991E091838083FE0175
:101DF000E75AFF4F808191810197F1F7FE01E75A81
:101E0000FF4F91838083DE01A55ABF4FFE01E55A43
:101E1000FF4F80819181019711969C938E93FE01D3
:101E2000E55AFF4F808191810097D1F627C08E013E
:101E3000055A1F4FFE01E35AFF4F60817181828175
:101E400093810E944100DC01CB01F80191838083E2
:101E5000DE01A95ABF4FFE01E55AFF4F80819181F3
:101E60008D939C93FE01E95AFF4F808191810197E8
:101E7000F1F7FE01E95AFF4F9183808380E062E031
:101E800040E00E94F407FE01ED5AFF4F80E090E031
:101E9000A0E8BFE380839183A283B3838E01015BBB
:101EA0001F4FFE01ED5AFF4F608171818281938146
:101EB0002BEA3AEA4AEA50E40E941702DC01CB011D
:101EC000F80180839183A283B383FE01E15BFF4F1E
:101ED000608171818281938120E030E040E85FE39E
:101EE0000E941D04882334F4FE01E25BFF4F81E071
:101EF0008083E0C0FE01E15BFF4F608171818281E0
:101F0000938120E030E04FE753E40E94BD031816B0
:101F10000CF0C0C0FE01ED5AFF4F608171818281DB
:101F2000938120E030E04AE754E40E941103DC0191
:101F3000CB01FE01E65BFF4F80839183A283B383D5
:101F40008E010A5B1F4FFE01E65BFF4F60817181CE
:101F50008281938120E030E04AE755E40E94170235
:101F6000DC01CB01F80180839183A283B383FE015E
:101F7000EA5BFF4F608171818281938120E030E0D4
:101F800040E85FE30E941D04882344F4FE01EC5BFB
:101F9000FF4F81E090E09183808364C0FE01EA5BA3
:101FA000FF4F608171818281938120E03FEF4FE795
:101FB00057E40E94BD0318160CF043C0FE01E65B17
:101FC000FF4F608171818281938120E030E040E2A7
:101FD00051E40E941702DC01CB018E010C5B1F4F04
:101FE000BC01CD010E944100DC01CB01F8019183CD
:101FF00080831FC0FE01EE5BFF4F80E991E091837B
:102000008083FE01EE5BFF4F808191810197F1F7A4
:10201000FE01EE5BFF4F91838083DE01AC5BBF4F1F
:10202000FE01EC5BFF4F80819181019711969C939B
:102030008E93FE01EC5BFF4F808191810097D1F67A
:1020400042C08E010C5B1F4FFE01EA5BFF4F6081B7
:102050007181828193810E944100DC01CB01F801F2
:1020600091838083DE01A05CBF4FFE01EC5BFF4FDC
:102070008081918111969C938E93FE01E05CFF4FCD
:10208000808191810197F1F7FE01E05CFF4F918320
:10209000808319C08E01025B1F4FFE01E15BFF4F81
:1020A00060817181828193810E944100DC01CB01BA
:1020B000F8018083FE01E25BFF4F80818FAF8FAD1F
:1020C0008A95F1F78FAF80E062E041E00E94F4076B
:1020D00080E090E0A0E8BFE38BAF9CAFADAFBEAFB8
:1020E0006BAD7CAD8DAD9EAD2BEA3AEA4AEA50E489
:1020F0000E941702DC01CB018FAB98AFA9AFBAAF3A
:102100006FA978AD89AD9AAD20E030E040E85FE39B
:102110000E941D0488231CF481E08EAB91C06FA93E
:1021200078AD89AD9AAD20E030E04FE753E40E94EE
:10213000BD0318160CF07BC06BAD7CAD8DAD9EADB4
:1021400020E030E04AE754E40E941103DC01CB01B7
:102150008AAB9BABACABBDAB6AA97BA98CA99DA993
:1021600020E030E04AE755E40E941702DC01CB0191
:102170008EA79FA7A8ABB9AB6EA57FA588A999A983
:1021800020E030E040E85FE30E941D0488232CF447
:1021900081E090E09DA78CA73FC06EA57FA588A990
:1021A00099A920E03FEF4FE757E40E94BD031816BE
:1021B0004CF56AA97BA98CA99DA920E030E040E2FA
:1021C00051E40E941702DC01CB01BC01CD010E9449
:1021D0004100DC01CB019DA78CA70FC080E991E0F5
:1021E0009BA78AA78AA59BA50197F1F79BA78AA71A
:1021F0008CA59DA501979DA78CA78CA59DA5009753
:1022000069F724C06EA57FA588A999A90E944100FD
:10221000DC01CB019DA78CA78CA59DA599A788A7BC
:1022200088A599A50197F1F799A788A70FC06FA96D
:1022300078AD89AD9AAD0E944100DC01CB018EAB37
:102240008EA98FA38FA18A95F1F78FA3FE01EB567C
:10225000FF4F8081982F917080E063E0492F0E94AA
:10226000F407FE01EB56FF4F80818695982F917001
:1022700080E064E0492F0E94F407FE01EB56FF4F17
:10228000808186958695982F917080E065E0492F32
:102290000E94F407FE01EB56FF4F808186958695DC
:1022A0008695982F917080E066E0492F0E94F40790
:1022B00080E090E0A0E8BFE38BA39CA3ADA3BEA306
:1022C0006BA17CA18DA19EA120E030E04AE755E4FE
:1022D0000E941702DC01CB018F8F98A3A9A3BAA398
:1022E0006F8D78A189A19AA120E030E040E85FE3FA
:1022F0000E941D0488232CF481E090E09E8F8D8F36
:102300003FC06F8D78A189A19AA120E03FEF4FE7F0
:1023100057E40E94BD0318164CF56BA17CA18DA15A
:102320009EA120E030E040E251E40E941702DC016F
:10233000CB01BC01CD010E944100DC01CB019E8F8D
:102340008D8F0FC080E991E09C8F8B8F8B8D9C8D42
:102350000197F1F79C8F8B8F8D8D9E8D01979E8FAE
:102360008D8F8D8D9E8D009769F714C06F8D78A12C
:1023700089A19AA10E944100DC01CB019E8F8D8F23
:102380008D8D9E8D9A8F898F898D9A8D0197F1F70A
:102390009A8F898F80E062E040E00E94F40780E03D
:1023A00090E0A0E8BFE38D8B9E8BAF8BB88F6D89DB
:1023B0007E898F89988D2BEA3AEA4AEA50E40E9496
:1023C0001702DC01CB01898B9A8BAB8BBC8B6989A3
:1023D0007A898B899C8920E030E040E85FE30E94A5
:1023E0001D0488231CF481E0888B91C069897A8957
:1023F0008B899C8920E030E04FE753E40E94BD03C5
:1024000018160CF07BC06D897E898F89988D20E02D
:1024100030E04AE754E40E941103DC01CB018C87D1
:102420009D87AE87BF876C857D858E859F8520E0E3
:1024300030E04AE755E40E941702DC01CB018887AF
:102440009987AA87BB87688579858A859B8520E0DF
:1024500030E040E85FE30E941D0488232CF481E013
:1024600090E09F838E833FC0688579858A859B85B0
:1024700020E03FEF4FE757E40E94BD0318164CF5EC
:102480006C857D858E859F8520E030E040E251E4BB
:102490000E941702DC01CB01BC01CD010E9441006A
:1024A000DC01CB019F838E830FC080E991E09D8387
:1024B0008C838C819D810197F1F79D838C838E8124
:1024C0009F8101979F838E838E819F81009769F7FB
:1024D00024C0688579858A859B850E944100DC013E
:1024E000CB019F838E838E819F819B838A838A8188
:1024F0009B810197F1F79B838A830FC069897A8951
:102500008B899C890E944100DC01CB01888B8889E2
:10251000898389818A95F1F78983CB56DF4F0FB67E
:10252000F894DEBF0FBECDBFCF91DF911F910F9109
:1025300008950F931F93DF93CF93CDB7DEB7C5599F
:10254000D0400FB6F894DEBF0FBECDBFFE01EB56F4
:10255000FF4F808380E061E041E00E94F407FE01CC
:10256000EF56FF4F80E090E0A0E8BFE380839183C7
:10257000A283B3838E0103571F4FFE01EF56FF4F17
:1025800060817181828193812BEA3AEA4AEA50E4C0
:102590000E941702DC01CB01F80180839183A283A2
:1025A000B383FE01E357FF4F608171818281938184
:1025B00020E030E040E85FE30E941D04882334F40B
:1025C000FE01E457FF4F81E08083E0C0FE01E35746
:1025D000FF4F608171818281938120E030E04FE77D
:1025E00053E40E94BD0318160CF0C0C0FE01EF5664
:1025F000FF4F608171818281938120E030E04AE762
:1026000054E40E941103DC01CB01FE01E857FF4FA7
:1026100080839183A283B3838E010C571F4FFE01E9
:10262000E857FF4F608171818281938120E030E023
:102630004AE755E40E941702DC01CB01F8018083D0
:102640009183A283B383FE01EC57FF4F60817181B8
:102650008281938120E030E040E85FE30E941D0426
:10266000882344F4FE01EE57FF4F81E090E0918310
:10267000808364C0FE01EC57FF4F608171818281CD
:10268000938120E03FEF4FE757E40E94BD03181607
:102690000CF043C0FE01E857FF4F608171818281D9
:1026A000938120E030E040E251E40E941702DC0117
:1026B000CB018E010E571F4FBC01CD010E9441007E
:1026C000DC01CB01F801918380831FC0FE01E0583B
:1026D000FF4F80E991E091838083FE01E058FF4F36
:1026E000808191810197F1F7FE01E058FF4F9183BE
:1026F0008083DE01AE57BF4FFE01EE57FF4F808152
:102700009181019711969C938E93FE01EE57FF4F96
:10271000808191810097D1F64BC08E010E571F4FDB
:10272000FE01EC57FF4F60817181828193810E948D
:102730004100DC01CB01F80191838083DE01A258C6
:10274000BF4FFE01EE57FF4F8081918111969C9300
:102750008E93FE01E258FF4F808191810197F1F73E
:10276000FE01E258FF4F9183808322C08E010457FF
:102770001F4FFE01E357FF4F60817181828193817A
:102780000E944100DC01CB01F8018083DE01A358E7
:10279000BF4FFE01E457FF4F80818C93FE01E35849
:1027A000FF4F80818A95F1F7FE01E358FF4F808348
:1027B00080E062E041E00E94F407FE01E758FF4F2D
:1027C00080E090E0A0E8BFE380839183A283B3839D
:1027D0008E010B581F4FFE01E758FF4F608171813A
:1027E000828193812BEA3AEA4AEA50E40E94170276
:1027F000DC01CB01F80180839183A283B383FE01C6
:10280000EB58FF4F608171818281938120E030E03D
:1028100040E85FE30E941D04882334F4FE01EC5875
:10282000FF4F81E08083E0C0FE01EB58FF4F6081E5
:1028300071818281938120E030E04FE753E40E9470
:10284000BD0318160CF0C0C0FE01E758FF4F6081B1
:1028500071818281938120E030E04AE754E40E9454
:102860001103DC01CB01FE01E059FF4F808391830E
:10287000A283B3838E0104591F4FFE01E059FF4F1D
:10288000608171818281938120E030E04AE755E4E4
:102890000E941702DC01CB01F80180839183A2839F
:1028A000B383FE01E459FF4F60817181828193817E
:1028B00020E030E040E85FE30E941D04882344F4F8
:1028C000FE01E659FF4F81E090E09183808364C070
:1028D000FE01E459FF4F608171818281938120E084
:1028E0003FEF4FE757E40E94BD0318160CF043C0BA
:1028F000FE01E059FF4F608171818281938120E068
:1029000030E040E251E40E941702DC01CB018E016D
:1029100006591F4FBC01CD010E944100DC01CB01D3
:10292000F801918380831FC0FE01E859FF4F80E9C1
:1029300091E091838083FE01E859FF4F808191816E
:102940000197F1F7FE01E859FF4F91838083DE0183
:10295000A659BF4FFE01E659FF4F80819181019733
:1029600011969C938E93FE01E659FF4F80819181D1
:102970000097D1F64BC08E0106591F4FFE01E45956
:10298000FF4F60817181828193810E944100DC014F
:10299000CB01F80191838083DE01AA59BF4FFE016C
:1029A000E659FF4F8081918111969C938E93FE0191
:1029B000EA59FF4F808191810197F1F7FE01EA59B1
:1029C000FF4F9183808322C08E010C581F4FFE0160
:1029D000EB58FF4F60817181828193810E94410099
:1029E000DC01CB01F8018083DE01AB59BF4FFE0152
:1029F000EC58FF4F80818C93FE01EB59FF4F808193
:102A00008A95F1F7FE01EB59FF4F8083FE01EB56EB
:102A1000FF4F808182958F70982F917080E063E0E6
:102A2000492F0E94F407FE01EB56FF4F80818295EB
:102A300086958770982F917080E064E0492F0E94FE
:102A4000F407FE01EB56FF4F8081829586958695AF
:102A50008370982F917080E065E0492F0E94F40701
:102A6000FE01EB56FF4F8081982F991F9927991FE0
:102A700080E066E0492F0E94F407FE01EF59FF4F06
:102A800080E090E0A0E8BFE380839183A283B383DA
:102A90008E01035A1F4FFE01EF59FF4F6081718174
:102AA0008281938120E030E04AE755E40E941702DA
:102AB000DC01CB01F80180839183A283B383FE0103
:102AC000E35AFF4F608171818281938120E030E081
:102AD00040E85FE30E941D04882344F4FE01E55AA8
:102AE000FF4F81E090E09183808364C0FE01E35A50
:102AF000FF4F608171818281938120E03FEF4FE73A
:102B000057E40E94BD0318160CF043C0FE01EF59B4
:102B1000FF4F608171818281938120E030E040E24B
:102B200051E40E941702DC01CB018E01055A1F4FB0
:102B3000BC01CD010E944100DC01CB01F801918371
:102B400080831FC0FE01E75AFF4F80E991E0918327
:102B50008083FE01E75AFF4F808191810197F1F751
:102B6000FE01E75AFF4F91838083DE01A55ABF4FD4
:102B7000FE01E55AFF4F80819181019711969C9348
:102B80008E93FE01E55AFF4F808191810097D1F627
:102B900027C08E01055A1F4FFE01E35AFF4F608187
:102BA0007181828193810E944100DC01CB01F80197
:102BB00091838083DE01A95ABF4FFE01E55AFF4F82
:102BC000808191818D939C93FE01E95AFF4F808112
:102BD00091810197F1F7FE01E95AFF4F91838083BC
:102BE00080E062E040E00E94F407FE01ED5AFF4FF2
:102BF00080E090E0A0E8BFE380839183A283B38369
:102C00008E01015B1F4FFE01ED5AFF4F6081718104
:102C1000828193812BEA3AEA4AEA50E40E94170241
:102C2000DC01CB01F80180839183A283B383FE0191
:102C3000E15BFF4F608171818281938120E030E010
:102C400040E85FE30E941D04882334F4FE01E25B48
:102C5000FF4F81E08083E0C0FE01E15BFF4F6081B8
:102C600071818281938120E030E04FE753E40E943C
:102C7000BD0318160CF0C0C0FE01ED5AFF4F608175
:102C800071818281938120E030E04AE754E40E9420
:102C90001103DC01CB01FE01E65BFF4F80839183D2
:102CA000A283B3838E010A5B1F4FFE01E65BFF4FD9
:102CB000608171818281938120E030E04AE755E4B0
:102CC0000E941702DC01CB01F80180839183A2836B
:102CD000B383FE01EA5BFF4F608171818281938142
:102CE00020E030E040E85FE30E941D04882344F4C4
:102CF000FE01EC5BFF4F81E090E09183808364C034
:102D0000FE01EA5BFF4F608171818281938120E047
:102D10003FEF4FE757E40E94BD0318160CF043C085
:102D2000FE01E65BFF4F608171818281938120E02B
:102D300030E040E251E40E941702DC01CB018E0139
:102D40000C5B1F4FBC01CD010E944100DC01CB0197
:102D5000F801918380831FC0FE01EE5BFF4F80E985
:102D600091E091838083FE01EE5BFF4F8081918132
:102D70000197F1F7FE01EE5BFF4F91838083DE0147
:102D8000AC5BBF4FFE01EC5BFF4F808191810197EF
:102D900011969C938E93FE01EC5BFF4F8081918195
:102DA0000097D1F642C08E010C5B1F4FFE01EA5B1B
:102DB000FF4F60817181828193810E944100DC011B
:102DC000CB01F80191838083DE01A05CBF4FFE013F
:102DD000EC5BFF4F8081918111969C938E93FE0155
:102DE000E05CFF4F808191810197F1F7FE01E05C8B
:102DF000FF4F9183808319C08E01025B1F4FFE013C
:102E0000E15BFF4F60817181828193810E9441006B
:102E1000DC01CB01F8018083FE01E25BFF4F808182
:102E20008FAF8FAD8A95F1F78FAF80E062E041E020
:102E30000E94F40780E090E0A0E8BFE38BAF9CAF76
:102E4000ADAFBEAF6BAD7CAD8DAD9EAD2BEA3AEABA
:102E50004AEA50E40E941702DC01CB018FAB98AF25
:102E6000A9AFBAAF6FA978AD89AD9AAD20E030E0D7
:102E700040E85FE30E941D0488231CF481E08EABD0
:102E800091C06FA978AD89AD9AAD20E030E04FE7F1
:102E900053E40E94BD0318160CF07BC06BAD7CADF3
:102EA0008DAD9EAD20E030E04AE754E40E9411036E
:102EB000DC01CB018AAB9BABACABBDAB6AA97BA9F8
:102EC0008CA99DA920E030E04AE755E40E94170252
:102ED000DC01CB018EA79FA7A8ABB9AB6EA57FA5E0
:102EE00088A999A920E030E040E85FE30E941D0432
:102EF00088232CF481E090E09DA78CA73FC06EA5AD
:102F00007FA588A999A920E03FEF4FE757E40E94E9
:102F1000BD0318164CF56AA97BA98CA99DA920E0D0
:102F200030E040E251E40E941702DC01CB01BC0119
:102F3000CD010E944100DC01CB019DA78CA70FC0F1
:102F400080E991E09BA78AA78AA59BA50197F1F745
:102F50009BA78AA78CA59DA501979DA78CA78CA54B
:102F60009DA5009769F724C06EA57FA588A999A99A
:102F70000E944100DC01CB019DA78CA78CA59DA5DB
:102F800099A788A788A599A50197F1F799A788A778
:102F90000FC06FA978AD89AD9AAD0E944100DC01E8
:102FA000CB018EAB8EA98FA38FA18A95F1F78FA34A
:102FB000FE01EB56FF4F8081982F917080E063E017
:102FC000492F0E94F407FE01EB56FF4F8081869542
:102FD000982F917080E064E0492F0E94F407FE0171
:102FE000EB56FF4F808186958695982F917080E0F3
:102FF00065E0492F0E94F407FE01EB56FF4F8081E8
:10300000869586958695982F917080E066E0492F89
:103010000E94F40780E090E0A0E8BFE38BA39CA3AC
:10302000ADA3BEA36BA17CA18DA19EA120E030E049
:103030004AE755E40E941702DC01CB018F8F98A369
:10304000A9A3BAA36F8D78A189A19AA120E030E04D
:1030500040E85FE30E941D0488232CF481E090E0A7
:103060009E8F8D8F3FC06F8D78A189A19AA120E09E
:103070003FEF4FE757E40E94BD0318164CF56BA1D4
:103080007CA18DA19EA120E030E040E251E40E94AD
:103090001702DC01CB01BC01CD010E944100DC0123
:1030A000CB019E8F8D8F0FC080E991E09C8F8B8F1D
:1030B0008B8D9C8D0197F1F79C8F8B8F8D8D9E8DC5
:1030C00001979E8F8D8F8D8D9E8D009769F714C00F
:1030D0006F8D78A189A19AA10E944100DC01CB01EA
:1030E0009E8F8D8F8D8D9E8D9A8F898F898D9A8DD4
:1030F0000197F1F79A8F898F80E062E040E00E94AB
:10310000F40780E090E0A0E8BFE38D8B9E8BAF8B4F
:10311000B88F6D897E898F89988D2BEA3AEA4AEAC1
:1031200050E40E941702DC01CB01898B9A8BAB8B98
:10313000BC8B69897A898B899C8920E030E040E8E2
:103140005FE30E941D0488231CF481E0888B91C0FA
:1031500069897A898B899C8920E030E04FE753E4C4
:103160000E94BD0318160CF07BC06D897E898F8983
:10317000988D20E030E04AE754E40E941103DC011E
:10318000CB018C879D87AE87BF876C857D858E85BB
:103190009F8520E030E04AE755E40E941702DC01F9
:1031A000CB0188879987AA87BB87688579858A85B7
:1031B0009B8520E030E040E85FE30E941D04882307
:1031C0002CF481E090E09F838E833FC068857985F1
:1031D0008A859B8520E03FEF4FE757E40E94BD03BF
:1031E00018164CF56C857D858E859F8520E030E036
:1031F00040E251E40E941702DC01CB01BC01CD0189
:103200000E944100DC01CB019F838E830FC080E9C7
:1032100091E09D838C838C819D810197F1F79D8343
:103220008C838E819F8101979F838E838E819F8166
:10323000009769F724C0688579858A859B850E94F7
:103240004100DC01CB019F838E838E819F819B8314
:103250008A838A819B810197F1F79B838A830FC0C0
:1032600069897A898B899C890E944100DC01CB01A4
:10327000888B8889898389818A95F1F78983CB56E0
:10328000DF4F0FB6F894DEBF0FBECDBFCF91DF91F9
:103290001F910F910895DF93CF9300D00F92CDB778
:1032A000DEB79B838A8319820EC08981282F30E084
:1032B0008A819B81FC01E20FF31F80810E94991299
:1032C00089818F5F89838981282F30E08A819B8162
:1032D000FC01E20FF31F8081882339F70F900F90D4
:1032E0000F90CF91DF910895DF93CF93CDB7DEB7E5
:1032F00062970FB6F894DEBF0FBECDBF9A8B898B55
:1033000089899A899E012F5F3F4FB9014AE050E0B9
:103310000E94A81BCE0101960E944B1962960FB61F
:10332000F894DEBF0FBECDBFCF91DF910895DF933C
:10333000CF9300D000D00F92CDB7DEB78A836B83D6
:103340008A81282F30E03D832C838C819D810097DA
:1033500031F02C813D812130310521F006C08B8177
:10336000898303C08B81805C8983898180680E9406
:10337000E70B0F900F900F900F900F90CF91DF9170
:103380000895DF93CF9300D000D0CDB7DEB79A83F6
:1033900089836B834C838B816C810E94971989810F
:1033A0009A810E944B190F900F900F900F90CF9120
:1033B000DF910895DF93CF9300D000D0CDB7DEB773
:1033C0009A8389836B834C838B816C810E949719CC
:1033D00089819A810E9474190F900F900F900F901D
:1033E000CF91DF910895DF93CF9300D00F92CDB7A7
:1033F000DEB789836A834B838A816B810E94971928
:1034000089810E9499120F900F900F90CF91DF91B8
:103410000895DF93CF93CDB7DEB728970FB6F89412
:10342000DEBF0FBECDBF6D837E838F8398876D8196
:103430007E818F8198850E94AB04DC01CB019C8347
:103440008B838B819C81AA2797FDA095BA2FBC0105
:10345000CD010E944D049B01AC016D817E818F8165
:1034600098850E94B901DC01CB01BC01CD0120E0AF
:1034700030E040E251E40E941702DC01CB01BC01C4
:10348000CD010E94AB04DC01CB019A8389838B813F
:103490009C810E94741989819A81181619063CF43E
:1034A0008EE20E94991289819A810E94741928964D
:1034B0000FB6F894DEBF0FBECDBFCF91DF91089558
:1034C000DF93CF93CDB7DEB781E00E94E70BCF91BA
:1034D000DF910895DF93CF93CDB7DEB784E00E94EC
:1034E000E70B80E20E94991286E00E94E70B80E2DF
:1034F0000E94991284E00E94E70B80E20E949912D8
:1035000086E00E94E70BCF91DF910895DF93CF9380
:10351000CDB7DEB7A1E3B0E0E1E3F0E080818B7FDF
:103520008C93A1E3B0E0E1E3F0E080818F7E8C93A7
:10353000A1E3B0E0E1E3F0E080818F7B8C93A5E52F
:10354000B0E0E5E5F0E0808183608C93ABE5B0E02E
:10355000EBE5F0E0808180648C937894A7E3B0E0A1
:10356000E7E3F0E08081806A8C93ADE2B0E0EDE2C9
:10357000F0E0808181658C93FFCF1F920F920FB690
:103580000F9211242F933F934F935F936F937F93E9
:103590008F939F93AF93BF93EF93FF93DF93CF935B
:1035A000CDB7DEB72E97DEBFCDBFEFE2F0E0809162
:1035B000680180838F5F80936801EEE2F0E0808194
:1035C0008823DCF7809168018A3719F481E48093BD
:1035D000680180E090E0A8E4B3E48B879C87AD8726
:1035E000BE876B857C858D859E8520E030E04AE72F
:1035F00055E40E941702DC01CB018F839887A987CD
:10360000BA876F81788589859A8520E030E040E827
:103610005FE30E941D0488232CF481E090E09E83E8
:103620008D833FC06F81788589859A8520E03FEF43
:103630004FE757E40E94BD0318164CF56B857C8557
:103640008D859E8520E030E040E251E40E94170223
:10365000DC01CB01BC01CD010E944100DC01CB01AA
:103660009E838D830FC080E991E09C838B838B8147
:103670009C810197F1F79C838B838D819E810197BB
:103680009E838D838D819E81009769F714C06F8121
:10369000788589859A850E944100DC01CB019E8353
:1036A0008D838D819E819A83898389819A810197F7
:1036B000F1F79A8389832E96DEBFCDBFCF91DF913C
:1036C000FF91EF91BF91AF919F918F917F916F91FA
:1036D0005F914F913F912F910F900FBE0F901F90D0
:1036E00018952F923F924F925F926F927F928F9296
:1036F0009F92AF92BF92CF92DF92EF92FF920F9381
:103700001F93CF93DF93CDB7DEB7CA1BDB0B0FB68A
:10371000F894DEBF0FBECDBF09942A883988488847
:103720005F846E847D848C849B84AA84B984C884DD
:10373000DF80EE80FD800C811B81AA81B981CE0FD4
:10374000D11D0FB6F894DEBF0FBECDBFED010895B9
:10375000FB019F01E8944230C4F04532B4F44A3092
:1037600029F497FB1EF4909581959F4F642F77273E
:103770000E94D91B805D8A330CF0895D8193CB0157
:103780000097A1F716F45DE251931082C9010C94E1
:10379000C91BDC01FC01672F71917723E1F7329798
:1037A00004C07C916D9370836291AE17BF07C8F31C
:1037B0000895AA1BBB1B51E107C0AA1FBB1FA61778
:1037C000B70710F0A61BB70B881F991F5A95A9F7CA
:0E37D00080959095BC01CD010895F894FFCF2F
:1037DE0000000000000000000001020203030303CA
:1037EE000404040404040404050505050505050583
:1037FE000505050505050505060606060606060663
:10380E00060606060606060606060606060606064A
:10381E000606060606060606070707070707070732
:10382E00070707070707070707070707070707071A
:10383E00070707070707070707070707070707070A
:10384E0007070707070707070707070707070707FA
:10385E0007070707070707070808080808080808E2
:10386E0008080808080808080808080808080808CA
:10387E0008080808080808080808080808080808BA
:10388E0008080808080808080808080808080808AA
:10389E00080808080808080808080808080808089A
:1038AE00080808080808080808080808080808088A
:1038BE00080808080808080808080808080808087A
:1038CE00080808080808080808080808080808086A
:0A38DE00080808080808080841005F
:00000001FF
