:100000000C942A000C948C000C943F000C943F003C
:100010000C943F000C943F000C943F000C943F0064
:100020000C943F000C943F000C943F000C943F0054
:100030000C943F000C943F000C943F000C943F0044
:100040000C943F000C943F000C943F000C943F0034
:100050000C943F0011241FBECFE5D8E0DEBFCDBF1A
:1000600010E0A0E6B0E0E2E1F2E002C005900D92FF
:10007000A236B107D9F70E94D9000C9407010C945D
:100080000000DF93CF9300D000D0CDB7DEB79C83C4
:100090008B838B819C819C0140E050E080E492E462
:1000A000AFE0B0E0BC01CD010E94E500DA01C9017A
:1000B00001979A838983E0E4F0E089819A81892F0E
:1000C00099278083E9E2F0E089818083EAE2F0E029
:1000D00088E18083E0E4F0E086E880830F900F9071
:1000E0000F900F90CF91DF910895DF93CF930F92F0
:1000F000CDB7DEB78983EBE2F0E08081882F90E016
:10010000807290700097B9F3ECE2F0E0898180830F
:100110000F90CF91DF9108951F920F920FB60F921B
:1001200011242F933F934F935F936F937F938F93FC
:100130009F93AF93BF93EF93FF93DF93CF93CDB78D
:10014000DEB7809160008B3718F081E48093600007
:10015000809160000E947500809160008F5F8093A5
:100160006000CF91DF91FF91EF91BF91AF919F918F
:100170008F917F916F915F914F913F912F910F9050
:100180000FBE0F901F901895DF93CF93CDB7DEB7BA
:10019000A5E5B0E0E5E5F0E0808182608C93ABE519
:1001A000B0E0EBE5F0E0808180648C93CF91DF914B
:1001B0000895DF93CF93CDB7DEB780E895E20E9434
:1001C00041000E94C4007894FFCFA1E21A2EAA1B1E
:1001D000BB1BFD010DC0AA1FBB1FEE1FFF1FA217F7
:1001E000B307E407F50720F0A21BB30BE40BF50BF4
:1001F000661F771F881F991F1A9469F7609570957D
:10020000809590959B01AC01BD01CF010895F894B4
:02021000FFCF1E
:020212004100A9
:00000001FF
