:100000000C942A000C943F000C943F000C943F0089
:100010000C943F000C943F000C943F000C943F0064
:100020000C943F000C943F000C943F000C943F0054
:100030000C943F000C943F000C943F000C943F0044
:100040000C943F000C943F000C943F000C943F0034
:100050000C943F0011241FBECFE5D8E0DEBFCDBF1A
:1000600010E0A0E6B0E0E0ECF1E002C005900D92F7
:10007000A237B107D9F70E9456000C94DE000C9409
:10008000000087E090E022E0019709F408952BBB7F
:10009000EFEDFEE23197F1F700C00000EFEDFEE278
:1000A0003197F1F700C00000220FEECF8FEF8ABB2F
:1000B000A69AA79AEEE6F0E021E030E0819141B304
:1000C000B90102C0660F771F8A95E2F7CB018095D0
:1000D000842381BB82B3DF0111979C91A90101C0E8
:1000E000440F9A95EAF7842B82BB70E0E237F7075A
:1000F00029F70E9441000E94410020E03AE0A1E07F
:10010000B0E0AF9AAE98822F632F0E94D200E92F01
:10011000F0E0E05AFF4F90819BBBEFEDFEE231979C
:10012000F1F700C00000AE9AAF98E82FF0E0E05A77
:10013000FF4F80818BBB8FED9EE20197F1F700C0EE
:100140000000EEE6F0E090E080E06191C62F40B361
:1001500050E002C0559547956A95E2F740FD16C0FC
:10016000BD0102C0660F771FCA95E2F740B350E0A9
:1001700046235723452BD1F386599F4FFC0180819D
:10018000853549F0843449F42150BBCF0196843041
:100190009105D9F6B6CF2F5FB4CF823509F0B1CF34
:1001A00020E0AFCF991B79E004C0991F961708F0A3
:1001B000961B881F7A95C9F780950895F894FFCF0C
:1001C0007E0CB69ECCDAFA8EFECE5544522D02033A
:0201D000040524
:00000001FF
