:100000000C942A000C943F000C943F000C943F0089
:100010000C943F000C943F000C943F000C943F0064
:100020000C943F000C943F000C943F000C943F0054
:100030000C943F000C943F000C943F000C943F0044
:100040000C943F000C943F000C943F000C943F0034
:100050000C943F0011241FBECFE5D8E0DEBFCDBF1A
:1000600010E0A0E6B0E0E4EEF1E002C005900D92F1
:10007000A237B107D9F70E945C000C94F0000C94F1
:10008000000087E090E022E0019709F408952BBB7F
:100090003FEF43EF51E0315040405040E1F700C0A6
:1000A00000003FEF43EF51E0315040405040E1F756
:1000B00000C00000220FE8CF8FEF8ABBA69AA79A54
:1000C000EEE6F0E021E030E0819141B3B90102C0F9
:1000D000660F771F8A95E2F7CB018095842381BB59
:1000E00082B3DF0111979C91A90101C0440F9A9539
:1000F000EAF7842B82BB70E0E237F70729F70E940A
:1001000041000E94410020E03AE0A1E0B0E0AF9859
:10011000AE9A822F632F0E94E400E92FF0E0E05AAC
:10012000FF4F90819BBB9FEFE3EFF1E09150E040E8
:10013000F040E1F700C00000AE98AF9AE82FF0E081
:10014000E05AFF4F80818BBB4FEF53EF61E041508E
:1001500050406040E1F700C00000EEE6F0E090E0C3
:1001600080E06191C62F40B350E002C0559547959D
:100170006A95E2F740FD19C0BD0102C0660F771F06
:10018000CA95E2F740B350E046235723452BD1F3FD
:1001900086599F4FFC018081853561F0843479F464
:1001A000222309F4B4CF2150B2CF019684309105B7
:1001B000C1F6ADCF233608F0AACF2F5FA8CF823586
:1001C00009F0A5CF20E0A3CF991B79E004C0991FC7
:1001D000961708F0961B881F7A95C9F780950895A1
:0401E000F894FFCFC1
:1001E4007E0CB69ECCDAFA8EFECE5544522D020316
:0201F400040500
:00000001FF
